:100000000C9462000C948A000C948A000C948A0070
:100010000C948A000C948A000C948A000C948A0038
:100020000C948A000C948A000C948A000C948A0028
:100030000C948A000C948A000C948A000C948A0018
:100040000C942D030C948A000C948A000C948A0062
:100050000C948A000C948A000C948A000C948A00F8
:100060000C948A000C948A000000000024002700F1
:100070002A0000000000250028002B0000000000DE
:1000800023002600290004040404040404040202DA
:100090000202020203030303030301020408102007
:1000A0004080010204081020010204081020000012
:1000B0000008000201000003040700000000000027
:1000C0000000C60411241FBECFEFD8E0DEBFCDBFB5
:1000D00011E0A0E0B1E0E6EDF9E002C005900D927C
:1000E000AA35B107D9F721E0AAE5B1E001C01D9218
:1000F000A338B207E1F710E0C2E6D0E004C02197D0
:10010000FE010E94E304C136D107C9F70E947703BC
:100110000C94E9040C940000833081F028F48130C1
:1001200099F08230A9F008958730A9F08830C9F09D
:100130008430B1F4809180008F7D03C08091800075
:100140008F7780938000089584B58F7784BD08955C
:1001500084B58F7DFBCF8091B0008F778093B00006
:1001600008958091B0008F7DF9CFCF93DF93282F32
:1001700030E0F901E255FF4F8491F901E656FF4F57
:10018000D491F901EA57FF4FC491CC23A1F081111A
:100190000E948C00EC2FF0E0EE0FFF1FE458FF4FA1
:1001A000A591B491EC91ED2381E090E009F480E019
:1001B000DF91CF91089580E090E0FACF1F93CF9325
:1001C000DF93282F30E0F901E255FF4F8491F901C8
:1001D000E656FF4FD491F901EA57FF4FC491CC2363
:1001E000A9F0162F81110E948C00EC2FF0E0EE0F89
:1001F000FF1FEE58FF4FA591B4918FB7F894EC9183
:10020000111108C0D095DE23DC938FBFDF91CF9111
:100210001F910895DE2BF8CFCF93DF9390E0FC0180
:10022000E656FF4F24918A579F4FFC018491882303
:10023000D1F090E0880F991FFC01E859FF4FA5917C
:10024000B491FC01EE58FF4FC591D49161110EC0DD
:100250009FB7F8948C91E22FE0958E238C932881A0
:10026000E223E8839FBFDF91CF9108958FB7F89481
:10027000EC91E22BEC938FBFF6CF3FB7F8948091CF
:10028000670190916801A0916901B0916A0126B55A
:10029000A89B05C02F3F19F00196A11DB11D3FBFBE
:1002A000BA2FA92F982F8827BC01CD01620F711D8D
:1002B000811D911D42E0660F771F881F991F4A9587
:1002C000D1F708958F929F92AF92BF92CF92DF9213
:1002D000EF92FF920E943D014B015C0188EEC82E17
:1002E00083E0D82EE12CF12C0E943D016819790998
:1002F0008A099B09683E734081059105A8F321E0B6
:10030000C21AD108E108F10888EE880E83E0981E31
:10031000A11CB11CC114D104E104F10429F7FF9020
:10032000EF90DF90CF90BF90AF909F908F90089507
:10033000AF92BF92CF92DF92EF92FF920F931F93F3
:10034000CF93DF936C017B018B01040F151FEB0131
:100350005E01AE18BF08C017D10759F06991D601E8
:10036000ED91FC910190F081E02DC6010995892B5A
:1003700079F7C501DF91CF911F910F91FF90EF9019
:10038000DF90CF90BF90AF900895089590E080E007
:100390000895FC0101900020E9F73197AF01481B57
:1003A000590BBC018BE691E00C949801CF93DF933D
:1003B000EC0160E08E810E94DE0061E08E810E948F
:1003C000DE0060E08E810E94DE008BE891E0019704
:1003D000F1F7DF91CF910895CF92DF92EF92FF92E4
:1003E0000F931F93CF93DF936C017C0187E0E80E9E
:1003F000F11CD0E0C0E0062F10E0B8010C2E02C0C6
:10040000759567950A94E2F76170F70181917F0114
:100410000E94DE002196C430D10579F7C601DF9134
:10042000CF911F910F91FF90EF90DF90CF900C94A0
:10043000D601CF92DF92EF92FF920F931F93CF934B
:10044000DF93EC01F62E642F8C810E94DE008D81FB
:100450008F3F19F060E00E94DE000F2D10E08F85C5
:1004600084FF25C06E0187E0C80ED11CF12CE12C61
:10047000B8010E2C02C0759567950A94E2F7617079
:10048000F60181916F010E94DE00FFEFEF1AFF0A73
:1004900088E0E816F10461F7CE01DF91CF911F915A
:1004A0000F91FF90EF90DF90CF900C94D601B801A0
:1004B00084E0759567958A95E1F7CE010E94EC017D
:1004C0006F2DCE01DF91CF911F910F91FF90EF9093
:1004D000DF90CF900C94EC0140E0682F8BE691E028
:1004E0000C941902CF93DF93823029F490917A0112
:1004F000986090937A0180937E0110927F0180E44E
:100500008093800180E18093810180E58093820166
:1005100061E080916F010E940C01809170018F3F1A
:1005200019F061E00E940C0161E0809171010E946C
:100530000C01CBE6D1E09E012B56314080917A012F
:1005400084FD0BC084E090E021962817390744F41D
:1005500061E08E810E940C01EECF88E090E0F4CF44
:100560008BE39DE00197F1F760E080916F010E94BD
:10057000DE0060E0809171010E94DE0080917001D8
:100580008F3F19F060E00E94DE0080917A0184FDC7
:1005900039C063E08BE691E00E94EC01CBE4D6E445
:1005A000CE010197F1F763E08BE691E00E94EC0148
:1005B0002197F1F763E08BE691E00E94EC0183E57F
:1005C00092E00197F1F762E08BE691E00E94EC0186
:1005D00080917A0180620E946C0284E080937B01AA
:1005E0008CE00E946C0281E00E946C028BE39FE130
:1005F0000197F1F782E080937C0186E0DF91CF9153
:100600000C946C0280620E946C028BE496E4019769
:10061000F1F780917A0180620E946C0283E592E09A
:100620000197F1F780917A0180620E946C02D0CF2D
:1006300090917E01691710F06FEF690FE62FF0E0DF
:10064000E559FE4F9489890F80680C946C0241E053
:100650000E94190281E090E008951F920F920FB658
:100660000F9211242F933F938F939F93AF93BF9338
:100670008091630190916401A0916501B091660140
:100680003091620123E0230F2D3758F50196A11D0B
:10069000B11D209362018093630190936401A09344
:1006A0006501B09366018091670190916801A09106
:1006B0006901B0916A010196A11DB11D8093670186
:1006C00090936801A0936901B0936A01BF91AF91C3
:1006D0009F918F913F912F910F900FBE0F901F9080
:1006E000189526E8230F0296A11DB11DD2CF78944C
:1006F00084B5826084BD84B5816084BD85B5826027
:1007000085BD85B5816085BD80916E0081608093D7
:100710006E00109281008091810082608093810040
:100720008091810081608093810080918000816050
:10073000809380008091B10084608093B1008091AB
:10074000B00081608093B00080917A0084608093D3
:100750007A0080917A00826080937A0080917A009A
:10076000816080937A0080917A00806880937A001B
:100770001092C10060E088E00E940C0160E089E016
:100780000E940C0160E08AE00E940C0160E08BE0B6
:100790000E940C0161E087E00E940C0161E086E0AC
:1007A0000E940C0180E40E946C02C8E0D1E000E1EC
:1007B00011E069918BE691E00E9427030C171D0759
:1007C000C1F788E40E946C02C0E0D1E008E011E0CB
:1007D00069918BE691E00E9427030C171D07C1F772
:1007E00082E00E9472028CE191E00E94C90161E006
:1007F00087E00E94DE0060E086E00E94DE000E944A
:10080000620160E087E00E94DE0060E086E00E9416
:10081000DE0081E00E946C028BE39FE10197F1F71B
:1008200080E0E82E80E0F82E60E080E00E9418036F
:1008300089E291E00E94C90188E00E94B5008C0124
:10084000909361018093600189E00E94B500EC0102
:1008500090935F0180935E018AE00E94B5009093BF
:100860005D0180935C018BE00E94B50090935B0179
:1008700080935A0161E081E00130110509F074C0F4
:100880000E94180361E08BE691E00E94270361E07B
:1008900085E0219709F06CC00E94180361E08BE6A7
:1008A00091E00E94270380915C0190915D0161E0DD
:1008B000019709F061C089E00E94180361E08BE6AE
:1008C00091E00E94270380915A0190915B0161E0C1
:1008D000019709F056C08DE00E94180361E08BE695
:1008E00091E00E9427038091600190916101892B22
:1008F000A1F580915E0190915F01892B71F5809146
:100900005C0190915D01892B41F580915A01909194
:100910005B01892B11F560E080E00E94180389E3F8
:1009200091E00E94C90161E086E00E94DE0060E083
:1009300087E00E94DE000E94620160E086E00E9483
:10094000DE0060E087E00E94DE0061E080E00E945F
:10095000180386E491E00E94C901E114F10409F44E
:1009600063CF0E94000060CF0E94180360E08BCF2D
:100970000E94180360E093CF89E00E94180360E0B2
:100980009ECF8DE00E94180360E0A9CFEBE6F1E076
:100990001382128284E191E09183808314828FEF2D
:1009A000858381E0868382E0878383E0808784E09B
:1009B000818785E0828713861486158616861786BA
:1009C00081E00C947202EE0FFF1F0590F491E02D70
:0609D0000994F894FFCF2A
:1009D6001F11111111111F0011110A040A11110022
:1009E6000000000027039801C601C5014761746530
:1009F600206F70656E696E6700504131205041323C
:100A06002050413320504134004761746520636CA7
:100A16006F73696E67004F43435550494544202024
:0A0A260020202020202020202000A6
:00000001FF
